:020000040800F2
:100000004018002021020008B3110008A5100008C4
:10001000B11100086F04000815130008000000006B
:10002000000000000000000000000000890100083E
:100030007104000800000000CD010008B51100089F
:100040003B0200083B0200083B0200083B0200089C
:100050003B0200083B0200083B0200083B0200088C
:100060003B0200083B0200083B0200083B0200087C
:100070003B0200083B0200083B0200083B0200086C
:100080003B0200083B0200083B0200083B0200085C
:100090003B0200083B0200083B0200083B0200084C
:1000A0003B0200083B0200083B0200083B0200083C
:1000B0003B0200083B0200083B0200083B0200082C
:1000C0003B0200083B0200083B0200083B0200081C
:1000D0003B0200083B0200083B0200083B0200080C
:1000E0003B0200083B0200083B02000800F002F857
:1000F00000F03AF80AA090E8000C82448344AAF188
:100100000107DA4501D100F02FF8AFF2090EBAE885
:100110000F0013F0010F18BFFB1A43F0010318473B
:1001200098240000B8240000103A24BF78C878C191
:10013000FAD8520724BF30C830C144BF04680C60ED
:10014000704700000023002400250026103A28BF35
:1001500078C1FBD8520728BF30C148BF0B60704739
:100160001FB51FBD10B510BD00F01BF91146FFF7FC
:10017000F7FF01F0E1F800F039F903B4FFF7F2FFFF
:1001800003BC00F041F90000224B19680868B0E890
:10019000F00F80F30988BFF36F8F4FF0000080F3FA
:1001A00011884EF00D0E70470000000006480068F0
:1001B000006880F3088862B661B6BFF34F8FBFF363
:1001C0006F8F00DF00BF00BF08ED00E0EFF3098094
:1001D000BFF36F8F0F4B1A6820E9F00F106008B55E
:1001E0004FF0500080F31188BFF34F8FBFF36F8F34
:1001F00001F0ECFD4FF0000080F31188BDE80840ED
:1002000019680868B0E8F00F80F30988BFF36F8FB2
:10021000704700BF0C000020EFF30580704700001E
:100220000948804709480047FEE7FEE7FEE7FEE78A
:10023000FEE7FEE7FEE7FEE7FEE7FEE704480549C6
:10024000054A064B7047000059120008ED000008EF
:1002500040120020401800204014002040140020CC
:10026000032A40F2308010F0030C00F0158011F8E2
:10027000013BBCF1020F624498BF11F801CB00F8BA
:10028000013B38BF11F8013BA2F1040298BF00F80E
:1002900001CB38BF00F8013B11F0030300F04F80A1
:1002A000083AC0F0088051F8043B083A51F804CBF2
:1002B000A0E80810F5E7121D5CBF51F8043B40F8B8
:1002C000043BAFF30080D20724BF11F8013B11F8C3
:1002D00001CB48BF11F8012B24BF00F8013B00F807
:1002E00001CB48BF00F8012B70474FF0000200B56A
:1002F000134694469646203922BFA0E80C50A0E849
:100300000C50B1F12001BFF4F7AF090728BFA0E8F6
:100310000C5048BF0CC05DF804EB890028BF40F8C2
:10032000042B08BF704748BF20F8022B11F0804F04
:1003300018BF00F8012B704770477047704710B521
:10034000203AC0F00B80B1E81850203AA0E81850CD
:10035000B1E81850A0E81850BFF4F5AF5FEA027C8E
:1003600024BFB1E81850A0E8185044BF18C918C0FD
:10037000BDE810405FEA827C24BF51F8043B40F89E
:10038000043B08BF7047D20728BF31F8023B48BF83
:1003900011F8012B28BF20F8023B48BF00F8012BC1
:1003A0007047754600F02CF8AE4605006946534686
:1003B00020F00700854618B020B5FFF73FFFBDE8E5
:1003C00020404FF000064FF000074FF000084FF0BC
:1003D000000B21F00701AC46ACE8C009ACE8C0094D
:1003E000ACE8C009ACE8C0098D46704710B50446BA
:1003F000AFF300802046BDE81040FFF7BEBE00000E
:1004000000487047E011002001491820ABBEFEE70C
:10041000260002007047000070B50446006881683D
:10042000C943C90717D1816821F00101816000F03B
:1004300051FA05460AE000BF00F04CFA401B0228C2
:1004400004D920688068C043C00706D0206880684F
:10045000C043C007F0D0002070BDA06A40F010007B
:10046000A062E06A40F00100E062012070BDFEE79A
:10047000704772B6FEE70000F8B50024009490F8CB
:1004800024202546012A12D0012280F824204A681F
:100490001F23072A0DD20668776B521E02EB8202D9
:1004A00093409F430B6893401F43776319E00220FA
:1004B000F8BD06680D2A0AD2376BD21F02EB820202
:1004C00093409F430B6893401F43376309E0F76AEB
:1004D0000D3A02EB820293409F430B6893401F4307
:1004E000F7620A68072306680A2A0AD3F7680A3AF5
:1004F00002EB420293409F438B6893401F43F76097
:1005000008E0376902EB420293409F438B689340B7
:100510001F4337610A68102A01D0112A20D1124BDB
:1005200002689A4217D193681B0219D4936843F466
:10053000000393600968102912D10C490C4A09681C
:10054000B1FBF2F101EB8101490000E0491E00918D
:100550000029FBD104E0816A41F02001816201247D
:1005600080F824502046F8BD002401409C00002063
:1005700040420F002DE9F0414FF0000704003D46D6
:100580007ED0A06A002628B9E66284F8246020465E
:1005900000F07EF82046FFF73FFFA16AC90600D4AD
:1005A00020B1A06A40F01000A06269E0A16A21F4C5
:1005B000885141F00201A1626268E169237B0A432C
:1005C00047EA43010A43A1684FF48077B94209D052
:1005D000012907D05FF0000194F814C0BCF1010FAD
:1005E00002D00AE03946F7E7F3B1A36A43F02003EB
:1005F000A362E36A43F00103E3622368D3F804C013
:100600002CF4694C4CEA010CC3F804C021688B68D7
:10061000DFF870C003EA0C0313438B60A168B94292
:100620000BD0012909D00CE0DFF85CC0A3690CEB0A
:1006300043330B4343F40061DFE7218A0D05A5F541
:1006400080152168CB6A23F470032B43CB622168A9
:1006500089680E4B1940914208D1E662A16A21F0E7
:10066000020141F00101A162BDE8F081A06A20F021
:10067000020040F01000A062E06A40F00100E06279
:100680000120F1E7FDF7E1FF00E0FFFFFE0E1FFF95
:1006900000B585B00021009101910291039100689D
:1006A0000E49884217D10E48816941F40071816179
:1006B000816901F400710491816941F00401816153
:1006C0008069694600F004000490032000900190C6
:1006D000044800F009F805B000BD00000024014006
:1006E00000100240000801402DE9F84FDFF8B891F2
:1006F0000024A9F1040B23460F2709F1040AABF1EA
:10070000040EC9E00125A5402A40AA427DD1674ECA
:10071000D1F804C0ACEB0608B44532D014DCBCF10F
:10072000030F3AD009DCBCF1000F2AD0BCF1010F55
:100730001CD0BCF1020F31D11DE0BCF1110F17D05C
:10074000BCF1120F2AD119E0B8F5881F19D006DCC8
:10075000B8F5803F15D0B8F5801F1FD111E0B8F56E
:10076000001F0ED0B8F5041F18D10AE0CB6815E0C1
:10077000CB681B1D12E0CB6808330FE0CB680C334D
:100780000CE08B682BB1012B4FF0080303D04561BF
:1007900004E0042302E0056100E00023FF2A01D801
:1007A000064601E000F104064FEA840501D9A5F1EF
:1007B0002005D6F8008007FA05FC28EA0C0803FAA1
:1007C00005F548EA0508C6F800804D68ED0062D5D9
:1007D000374DAE6946F00106AE61AD6924F00306FF
:1007E00005F001050095334D06EB050CDCF80850CB
:1007F000A607360F07FA06F825EA0805DFF8B880DD
:10080000404503D14FF0000817E044E0DFF8AC802A
:10081000404502D14FF001080FE0DFF8A4804045C9
:1008200002D14FF0020808E0DFF89880404502D17D
:100830004FF0030801E04FF0040808FA06F848EA10
:100840000508CCF808804D68D9F80060ED024D46E7
:1008500001D5164300E096432E604D68DAF800603B
:10086000AD02554601D5164300E096432E604D6813
:10087000DBF80060AD035D4601D5164300E096430A
:100880002E604D68DEF80060ED03754601D5164315
:1008900000E096432E60641C0D682A46E5407FF414
:1008A00031AFBDE8F88F00000804014000001110CE
:1008B000001002400000014000080140000C01400F
:1008C00000100140001401400AB1016170470904A1
:1008D000FBE700000148806870470000900000209E
:1008E000074810B5016841F010010160032000F0D5
:1008F00067F80F2000F006F800F024F8002010BD83
:100900000020024070B50D4D04464FF47A712878EE
:10091000B1FBF0F00A490968B1FBF0F000F044FBCC
:1009200048B9102C07D200222146501E00F028F8AA
:1009300000206C6070BD012070BD000090000020A0
:100940009C0000200C4808B5816941F001018161DB
:10095000816901F001010091C16941F08051C161DB
:10096000C06900F0805000900448416821F0E061C7
:1009700041F00071416008BD0010024000000140DC
:10098000F0B40E4B1B680C46C3F30223C3F10705FA
:10099000042D00D90425191D072901D2002300E0E8
:1009A000DB1E012606FA05F1491E214099409E40B2
:1009B000761E16403143F0BC00F0ADBC0CED00E0FB
:1009C000064900F0070208684FF6FF03184040EAA6
:1009D0000220034A10430860704700000CED00E05D
:1009E0000000FA052DE9F84305460078354CC007AC
:1009F00054D0E0690026C00008D4E06940F080507F
:100A0000E061E069012600F0805000902E48016806
:100A1000C90512D40168804641F480710160FFF776
:100A200059FF074605E000BFFFF754FFC01B6428CD
:100A300023D8D8F80000C005F6D5206A10F440701D
:100A400021D0A98801F4407181421CD0206A1F493D
:100A5000012220F440700A6000220A602062C00770
:100A600011D0FFF737FF074641F2883808E000BF92
:100A7000FFF730FFC11B414502D90320BDE8F883D1
:100A8000206A8007F4D5206A696820F44070084322
:100A900020621EB1E06920F08050E0612878800774
:100AA00005D56068A96820F4404008436060287854
:100AB000C00605D56068E96820F4800008436060DE
:100AC0000020DBE70010024000700040400442427A
:100AD0002DE9F0470F46050061D0434E306800F025
:100AE0000700B84209D2306820F007003843306070
:100AF000306800F00700B84251D128683B4C8107AC
:100B000012D5400703D5606840F4E0606060287843
:100B1000000703D5606840F4605060606068A968B1
:100B200020F0F000084360602878C00728D068688B
:100B3000012810D02168022810D0890700292EDA58
:100B4000616821F0030101436160FFF7C3FE804645
:100B500041F288390DE021688903EFE78901EDE76B
:100B6000FFF7B8FEA0EB0801494502D90320BDE814
:100B7000F0876068696800F00C00B0EB810FEFD17E
:100B8000306800F00700B8420BD9306820F0070049
:100B900038433060306800F00700B84201D00120CF
:100BA000E5E72878400705D56068E96820F4E0604B
:100BB000084360602878000706D56068296920F43A
:100BC000605040EAC100606000F038F86168084A8F
:100BD000C1F30311515CC84006490860064800682B
:100BE000FFF790FE0020C2E7002002400010024004
:100BF0009E2500089C000020940000200448054920
:100C000000684968044AC1F30221515CC84070473A
:100C10009C00002000100240AE2500080448054951
:100C200000684968044AC1F3C221515CC84070475A
:100C30009C00002000100240AE2500080E4A5168BA
:100C40000E4801F00C03042B11D0082B0FD10C48D7
:100C5000C1F38343C903C05C0AD55168084AC1F394
:100C60004041921E515C054A5043B0FBF1F0704781
:100C700004494843704700000010024000127A0007
:100C80008E25000800093D002DE9F84F040070D0C2
:100C90002078C04DC00749D06868C0F381000128A2
:100CA00007D06868C0F38100022809D16868C003D2
:100CB00006D52868800339D560680028E7D035E07C
:100CC0006068B0F5803F0BD010B1B0F5A02F11D007
:100CD000286820F480302860286820F4802002E012
:100CE000286840F480302860606890B1FFF7F2FD1A
:100CF00006460AE0286840F480202860F0E700BF3C
:100D0000FFF7E8FD801B642873D828688003F7D5B7
:100D10000CE0FFF7DFFD064605E000BFFFF7DAFD58
:100D2000801B6428F0D828688003F7D420789A4E76
:100D300080074FF001094FF0000839D5686810F0BE
:100D40000C0F07D06868C0F38100022809D16868D9
:100D5000C00306D42868800714D52069012808D16B
:100D600010E02069B0B1C6F80090FFF7B3FD074668
:100D700005E00AE1FFF7AEFDC01B0228C4D82868D1
:100D80008007F7D52868616920F0F80040EAC100C3
:100D900028600DE0C6F80080FFF79CFD074604E0E0
:100DA000FFF798FDC01B022823D828688007F7D4D6
:100DB000207800072CD57948A169D9B1C0F80090F6
:100DC000FFF788FD074604E0FFF784FDC01B0228FB
:100DD0000FD8686A8007F7D571484FF4FA51006858
:100DE000B0FBF1F0009000BF0098411E0091FAD2D4
:100DF0000EE080E0C0F80080FFF76CFD074604E0DD
:100E0000FFF768FDC01B022875D8686A8007F7D411
:100E10002078400760D5E8690027C00008D4E86959
:100E200040F08050E861E869012700F080500090B0
:100E30005C480168C90513D40168834641F4807198
:100E40000160FFF747FD824606E000BFFFF742FD65
:100E5000A0EB0A0064284ED8DBF80000C005F5D5E9
:100E6000E06801280AD008B1052813D0286A20F0CC
:100E700001002862286A20F0040002E0286A40F09D
:100E800001002862E06841F2883B98B1FFF722FD3B
:100E900082460BE0286A40F004002862EEE700BFBB
:100EA000FFF718FDA0EB0A0159455AD8286A8007B8
:100EB000F6D50CE0FFF70EFD824605E0FFF70AFDD0
:100EC000A0EB0A0159454CD8286A8007F6D41FB117
:100ED000E86920F08050E861E06988B36968C1F38F
:100EE0008101022944D00228C6F8608004D0FFF7AF
:100EF000F1FC044638E034E0FFF7ECFC074604E080
:100F0000FFF7E8FCC01B02282BD828688001F7D423
:100F1000206AB0F5803F05D16868A16820F40030F0
:100F200008436860D4E908010843696821F4741132
:100F300008436860C6F86090FFF7CCFC044606E002
:100F400025E000BFFFF7C6FC001B022809D828686F
:100F50008001F7D51BE000BFFFF7BCFC001B022897
:100F600002D90320BDE8F88F28688001F4D40EE090
:100F70000128F7D06868226A00F48031914204D1D8
:100F8000616A00F47010884201D00120EAE7002075
:100F9000E8E70000001002400000424280044242A4
:100FA0009C0000200070004010B5401EB0F1807F12
:100FB00001D3012010BD4FF0E02460610F216017C4
:100FC00000F0A9F90020A06107202061002010BDD9
:100FD00070B5040004D094F84100002510B106E07B
:100FE000012070BD84F84050204600F023F82420F2
:100FF00084F841002068C16821F40051C160204696
:1010000000F02CF92068016921F490410161206809
:10101000416921F02A0141612068C16841F4005111
:10102000C1606564202084F8410084F84200656353
:10103000002070BD30B585B0002400940194029466
:10104000039400681449884224D11448816941F40A
:1010500080418161816901F480410491816941F09D
:101060000401816180690E4D00F0040004904FF48A
:1010700000700090022001900320039069462846EA
:10108000FFF732FB2815CDE9000469462846029493
:10109000FFF72AFB05B030BD0038014000100240C8
:1010A00000080140FEE700003EB50024104800940F
:1010B000019402940D498460016004730475012554
:1010C00005614FF460214460C161FFF753FA08B134
:1010D000FFF7CFF9CDE90045694605480294FFF7CF
:1010E000CBF9002801D0FFF7C4F93EBD0024014030
:1010F00068110020F0B585B000241C4800940194CC
:1011000002940394816941F020018161816901F0B9
:1011100020010491816941F004018161816901F03C
:1011200004010491816941F0080181618069104FD7
:1011300000F0080047F207060490002231463846C6
:10114000FFF7C2FB382001258DE8310069460948C8
:10115000FFF7CAFA0220CDE90240CDE900656946F1
:101160003846FFF7C1FA05B0F0BD0000001002409C
:10117000000C0140000801400C4810B50A4901600C
:101180004FF416514160002181600C22C160C0E91A
:1011900004128161C161FFF71BFF002803D0BDE885
:1011A0001040FFF766B910BD0038014098110020CB
:1011B000FEE7FEE710B5502080F31188BFF34F8F94
:1011C000BFF36F8F01F01EF818B104494FF0805043
:1011D0000860002080F3118810BD000004ED00E0DD
:1011E00030B593B028216846FFF77FF814210AA88C
:1011F000FFF77BF8002501200F951095119501044C
:1012000012958DE8230004904FF4E010CDE908100A
:10121000022407946846FFF737FD08B172B6FEE76F
:101220000AA90F2081E831004FF48060CDE90D0557
:1012300002210AA8FFF74CFC08B172B6FEE74FF492
:10124000004011900F940FA8FFF7CCFB002801D0AD
:1012500072B6FEE713B030BD7047704770B50446F4
:1012600000680169E26821F440511143016121697C
:10127000A0680843616908432168CA6841F20C63A9
:101280009A430243CA6020684169A26921F440710F
:10129000114341611E492068884202D1FFF7BEFC1C
:1012A00001E0FFF7ABFC00EBC00101EB001260684E
:1012B00064218000B2FBF0F3B3FBF1F36FF018068A
:1012C0007343B2FBF0F5B2FBF0F605EB8305322376
:1012D00003EB0515B5FBF1F5B6FBF1F605F0F005EE
:1012E00005EB0615B2FBF0F6B2FBF0F0B0FBF1F047
:1012F0006FF01802504306EB800003EB0010B0FBC8
:10130000F1F0216800F00F002844886070BD0000F3
:1013100000380140FEE70907090E002804DB00F150
:10132000E02080F80014704700F00F0000F1E0208A
:1013300080F8141D704700001CB5FFF7D1FAFFF7C5
:101340004FFFFFF7D7FEFFF7AFFEFFF715FF3A4855
:101350000324CDE900404FF480760023324637A1C4
:101360003D4800F00DFF34480023001DCDE900404A
:1013700032463AA1384800F003FF2F4800230830D6
:10138000CDE9004032463DA1334800F0F9FE2A483D
:1013900002250C30CDE900500023324640A12E48F2
:1013A00000F0EEFE244800231030CDE90050324614
:1013B00042A1294800F0E4FE1F4800231430CDE983
:1013C0000050324645A1244800F0DAFE1A480023B6
:1013D0001830CDE90050324646A11F4800F0D0FE3B
:1013E000154901201C31CDE900010023324648A1F6
:1013F000194800F0C5FE104800232030CDE9005008
:10140000324647A1144800F0BBFE0B4800232430AD
:10141000CDE90040324646A10F4800F0B1FE064833
:1014200000232830CDE90040324647A10A4800F0A9
:10143000A7FE00F08BFCFEE7640000204472697692
:10144000696E6720576865656C20427574746F6EAD
:10145000205461736B0000005B12000844726976CF
:101460006572205365617420436F6E736F6C6520E5
:10147000427574746F6E205461736B0050617373A6
:10148000656E676572205365617420436F6E736F7C
:101490006C6520427574746F6E205461736B00002C
:1014A00044726976657220536561742054656D706D
:1014B0002052656164205461736B00005061737346
:1014C000656E67657220536561742054656D702088
:1014D00052656164205461736B0000004472697648
:1014E000657220536561742048656174657220548B
:1014F00061736B0050617373616E67657220536531
:10150000617420486561746572205461736B0000DA
:10151000446973706C6179205461736B0000000042
:10152000436F6E74726F6C205461736B0000000027
:101530004661696C7572652048616E646C696E679E
:10154000205461736B000000446961676E6F7374AF
:10155000696373205461736B0000000070B5124C16
:101560000546A6682068001D00F0FAFA38B9206820
:1015700090F82C1001208840E1688143E1602068E8
:101580003544B5424560216805D2A06BBDE8704086
:10159000091D00F006BB606B091D00F002FB606ACC
:1015A000854200D2656270BD0C0000202DE9F0413B
:1015B000054600F00FFB324C6068401C60602068FC
:1015C000304F10B1206900B325E025606068012824
:1015D00021D1002606EB860007EB800000F0D3FA4D
:1015E000761C052EF6D32748643000F0CCFA254847
:1015F000783000F0C8FA23488C3000F0C4FA214853
:10160000643060631430A06305E02068E96AC06A52
:10161000884200D82560206A0121401C2062E86AC7
:10162000E26881401143E16000EB800007EB80003D
:101630004068A8608168E9608268291D5160816006
:10164000E86A00EB800007EB8001696157F8201021
:10165000491C47F8201000F0DDFA206900280CD062
:101660002068E96AC06A884207D207494FF0805073
:101670000860BFF34F8FBFF36F8FBDE8F0810000AC
:101680000C000020A000002004ED00E010B500F0E8
:10169000A1FA0C4C206880B90B4800F074FA0A4893
:1016A000143000F070FA0848E06014302061002225
:1016B00010210A2000F00CFC2060BDE8104000F072
:1016C000A9BA0000480000204001002030B4026C9C
:1016D0000B46002A0BD0C1681144C1608468A14246
:1016E00001D30168C16030BC1846FEF7B9BD30BCFB
:1016F000704700000648074A4FF080510368012BED
:10170000FCD91160BFF34F8FBFF36F8FF6E7000076
:10171000A000002004ED00E02DE9F0479946DDE946
:10172000097480466FF00303206B03EB82021044C0
:10173000089D20F00706700707D0502080F311881D
:10174000BFF34F8FBFF36F8FFEE761B10020231807
:101750000A5C83F834200A5C12B1401C1028F6D3CE
:10176000002084F84300052D07D3502080F3118812
:10177000BFF34F8FBFF36F8FFEE7201DE56200F0D0
:101780000DFA04F1180000F009FA2461C5F1050012
:101790006462A0614A464146304600F0CFF92060BD
:1017A000002F00D03C60BDE8F087000070B5002439
:1017B00041600B4D0061914206D8D11A8269914275
:1017C00006D2011D286907E09A4203D2994201D34B
:1017D000012403E0011DE86800F0E3F9204670BD34
:1017E0004800002010B5044600F0F4F9A06B28B1C1
:1017F0005FF0000400F00EFA204610BD0124F9E766
:1018000070B506460D480D46C068C068C468201D06
:1018100000F0A6F994F82400410705D52A46314680
:10182000204600F0BDF803E000F0FE0084F824003C
:101830002046216ABDE870400847000048000020AB
:1018400070B586B03A4E6AE00098002806DADDE905
:101850000201019A90470098002860DB029C6069B1
:1018600010B1201D00F07CF904A800F0BBF805467B
:1018700000980A2853D2DFE800F0520505282E46CA
:101880000505282E94F824002A4640F0010084F82B
:1018900024000198A169034601442046FFF786FF12
:1018A00040B394F82400410707D50198A1692A465E
:1018B0000144204600F074F803E000F0FE0084F8D4
:1018C0002400216A2046884729E014F8240F00F0FC
:1018D000FE00207023E094F8240040F0010084F81A
:1018E00024000198A06130B141192B461A462046C8
:1018F000FFF75CFF13E0502080F31188BFF34F8F98
:10190000BFF36F8FFEE794F82400810703D42046CD
:1019100000F094F903E000F0FE0084F824000022B7
:101920006946306800F056FB00288DD106B070BDC6
:1019300048000020F8B50D46064600F03FFA68461C
:1019400000F050F80446009810B100F065FDF8BDB5
:101950001148ADB101690968D9B10025311B2A468A
:10196000006800F083F900F057FD0028EFD10B4923
:101970004FF080500860BFF34F8FBFF36F8FF8BDFB
:10198000A642EBD800F048FD21463046FFF738FF6D
:10199000F8BD0125E2E700004800002004ED00E06A
:1019A00070B516460C46054604E0A869296A044449
:1019B00028468847A8692346011932462846FFF77A
:1019C000F5FE0028F1D170BD0548416B096821B1D1
:1019D000416BC9680968416270474FF0FF31FAE70F
:1019E0000C0000202DE9F041064600F005FC0E4CED
:1019F0000546A068854214D24FF0FF3704E0C06866
:101A000039460068FFF7FCFEE06801680029F6D15E
:101A10002169C4E90310012030602846A560BDE8B3
:101A2000F0810020F8E700004800002008484068E6
:101A3000401C4FF0500080F3118804D0BFF34F8F4B
:101A4000BFF36F8FFEE7BFF34F8FBFF36F8FFEE7DC
:101A500000000020074CE068016841B1C068002127
:101A6000D0F80000FFF766FFFFF7EAFEF3E7012179
:101A70000020F7E7480000202DE9F041044600F07F
:101A8000A9F894F9455004F1240609E0606A48B1C8
:101A9000304600F053FC08B100F012F96D1E6DB233
:101AA000002DF3DC4FF0FF3684F8456000F0B2F80B
:101AB00000F090F894F9445004F1100709E020690F
:101AC00048B1384600F03AFC08B100F0F9F86D1E54
:101AD0006DB2002DF3DC84F84460BDE8F04100F005
:101AE00099B8000070B504460025400709D004F0FD
:101AF0000700C0F108002044A04201D9044600E0DC
:101B0000002400F05BF90B48416819B90A4921F03B
:101B10000701416054B1026840F6F8731119994207
:101B200004D2914202D9436801609D1800F074FC10
:101B3000284670BD5C0000206F01002010B5031F17
:101B40004FF080741C601B1F21F001011960191FE8
:101B5000024B0B60143940380A6010BD2D1A000882
:101B6000D0E9013201699A60D0E901235A604A68DC
:101B7000824201D182684A60002202610868401EE8
:101B800008600868704700F108014FF0FF32C0E9B3
:101B90000112C160016100210160704700210161F3
:101BA000704730B50B685A1C02D000F1080202E001
:101BB000026904E02246546825689D42FAD95368B8
:101BC0004B6099608A60516008610168491C01603E
:101BD00030BD0000502080F31188BFF34F8FBFF35A
:101BE0006F8F0A494868401C486001280CD108489A
:101BF000006810F0FF0F07D0502080F31188BFF36A
:101C00004F8FBFF36F8FFEE770470000000000208A
:101C100004ED00E00849486828B1401E486001D141
:101C200080F311887047502080F31188BFF34F8FE5
:101C3000BFF36F8FFEE7000000000020002807D0F0
:101C4000502080F31188BFF34F8FBFF36F8FFEE7F3
:101C5000704700004FF0E0200021016181610249DE
:101C600041610721016170473F19010070B51546B8
:101C70000E460446FFF7AEFF94F944100020491CBD
:101C800001D184F8440094F94510491C01D184F82D
:101C90004500FFF7BFFFA06B28B92A46314604F183
:101CA000240000F02BF82046BDE87040FFF7E4BEAA
:101CB0000249CA6902608968416070470C000020CF
:101CC00001490120886170470C00002010B50C46C6
:101CD00050B1094909681831FFF763FF2046BDE894
:101CE00010400121FFF73ABC502080F31188BFF368
:101CF0004F8FBFF36F8FFEE70C000020F0B40C464F
:101D0000D0B1114943680D68EB619D680E6835627A
:101D10000D689E68183575600D6818359D600968F6
:101D200088620168491C01600AB14FF0FF34204607
:101D3000F0BC1146FFF712BC502080F31188BFF3AE
:101D40004F8FBFF36F8FFEE70C0000207CB5174864
:101D50000025CDE900502B46802215A1164800F041
:101D60000FFA124C283C012803D100F0EBFB0128AC
:101D700002D0401C11D00EE0502080F31188BFF338
:101D80004F8FBFF36F8F4FF0FF30606201202061F3
:101D9000A56000F049F8E06A7CBD502080F311880E
:101DA000BFF34F8FBFF36F8FFEE7000034000020BA
:101DB00049444C4500000000F51600080248016B3C
:101DC000491C0163704700000C0000201448016B9F
:101DD00011B101218161704700218161C168B1FAAF
:101DE00081F1C1F11F0101EB81020E4951F822304E
:101DF0006BB101EB820101F108034A6852684A6045
:101E00009A4201D152684A60D168016070475020FF
:101E100080F31188BFF34F8FBFF36F8FFEE7000091
:101E20000C000020A00000201CB526490878019075
:101E3000FF20087008788DF800009DF800009DF8DC
:101E4000002000F0F000904207D0502080F311886D
:101E5000BFF34F8FBFF36F8FFEE79DF800001A4C62
:101E600000F0500020700720A06005E09DF80020E1
:101E700052008DF80020401E9DF800201206F5D477
:101E8000A060032807D0502080F31188BFF34F8F44
:101E9000BFF36F8FFEE74FF44070A06001980870A9
:101EA0000A48016841F470010160016841F0704125
:101EB0000160FFF7CFFE00206060FEF777F9002099
:101EC0001CBD000000E400E00000002020ED00E068
:101ED00070B50E4605001DD04FF0FF30B0FBF5F099
:101EE000B04217D305FB06F010F1490F12D8483065
:101EF000FFF7F8FD040009D004F1480120463EB187
:101F00000160C0E90F56012100F00CF8204670BDB9
:101F10000060F6E7502080F31188BFF34F8FBFF3C6
:101F20006F8FFEE72DE9F0410F4604004FF00106E8
:101F30002DD0E06B98B3B51EB5FBF0F1206C81425B
:101F40003ED3FFF747FED4E90F20216802FB0011C2
:101F5000A1600021A163216861600A46D4E90F01F4
:101F6000401E00FB01212046E16000F8445F4570FF
:101F700004F11000A7B1FFF706FE04F12400FFF7FB
:101F800002FE00BFFFF746FE3046BDE8F08150205C
:101F900080F31188BFF34F8FBFF36F8FFEE70FE021
:101FA00021690029EED000F0C9F90028EAD00849DB
:101FB0004FF080500860BFF34F8FBFF36F8FE1E7A2
:101FC000502080F31188BFF34F8FBFF36F8FFEE770
:101FD00004ED00E02DE9F747002683B08A460400AF
:101FE00003D0BAF1000F08D011E0502080F311881F
:101FF000BFF34F8FBFF36F8FFEE7206C38B15020D7
:1020000080F31188BFF34F8FBFF36F8FFEE700F0AF
:10201000E5F8DFF8F4804FF000094FF0805748B939
:10202000059838B1502080F31188BFF34F8FBFF36C
:102030006F8FFEE7FFF7CEFDA56BC5B15146204679
:10204000FFF744FB6D1EA563206950B104F1100039
:1020500000F074F928B1C8F80070BFF34F8FBFF3D8
:102060006F8FFFF7D7FD012006B0BDE8F087059818
:1020700008B11EB106E0FFF7CDFD27E06846FFF787
:1020800017FE0126FFF7C6FDFFF798FEFFF7A2FD3A
:1020900094F94400401C01D184F8449094F945001F
:1020A000401C01D184F84590FFF7B4FD05A96846AE
:1020B00000F02CF8002820460AD0FFF7DDFC00F0E5
:1020C000ABF92046FFF78EFB0028B3D00020CBE70A
:1020D000FFF788FB90B104F124000599FFF7F6FDA6
:1020E0002046FFF7C9FC00F097F90028A2D1C8F8F4
:1020F0000070BFF34F8FBFF36F8F9BE72046FFF752
:10210000BBFC00F089F995E704ED00E02DE9F04112
:102110000C46050010D0BCB1FFF75CFD174A916872
:102120006B682E68D769C81A0022BE4214D08B4251
:1021300012D8012522601BE0502080F31188BFF3E4
:102140004F8FBFF36F8FFEE7502080F31188BFF3EE
:102150004F8FBFF36F8FFEE72168814206D9081ABF
:1021600020602846FFF7A4FD002501E0012522603C
:10217000FFF750FD2846BDE8F08100000C0000206C
:102180002DE9FF5F8346DDE90E87994616468A46AC
:102190009000FFF7A7FC05001DD04C20FFF7A2FC24
:1021A000040015D04C21FEF7A0F825630021CDE9ED
:1021B0000241CDE900874B46324651465846FFF76B
:1021C000ABFA2046FFF7F2F9012004B0BDE8F09F1A
:1021D0002846FFF733FD4FF0FF30F6E70548016969
:1021E00019B1006B18B10020704701207047022020
:1021F000704700000C000020014880687047000014
:102200000C0000202DE9F0414A4C0026206B28B13B
:102210006069401C60613046BDE8F081A5686D1CB6
:10222000A56013D1606B006838B1502080F311882D
:10223000BFF34F8FBFF36F8FFEE7606BA16B6163DE
:10224000A063E069401CE061FFF7BEFB616A3A48A9
:102250008D420FD34FF0000E616B096839B1616B8D
:10226000C968C9684A68954212D2626202E04FF0BA
:10227000FF3161622168C96A01EB810150F82100D8
:10228000012800D90126A0690028C4D00126C2E790
:10229000D1E902724B69BA60D1E902277A605F68BE
:1022A0000A1D974201D1CF685F60C1F814E01F6832
:1022B0007F1E1F60D1F828C0BCF1000F15D0D1E9F6
:1022C00007379F60D1E907377B60DCF8047001F1C4
:1022D00018039F4202D10B6ACCF80430C1F828E001
:1022E000DCF800305B1ECCF80030CB6A0127D4F854
:1022F0000CC09F4047EA0C07E76003EB830300EB49
:1023000083035B688B609F68CF609F687A609A6088
:10231000CA6A02EB820200EB82034B6150F8223062
:102320005B1C40F82230C96A2268D26A914293D974
:10233000012691E70C000020A000002070B5C068C5
:10234000C06850B3D0E90732816A9A60D0E90723A8
:102350005A604A6800F118039A4201D1026A4A6041
:10236000002585620A68521E0A6029490A6B012409
:10237000DAB1284D6A68C261966806629668736031
:10238000936085622A68521C2A60C06A0A68D26A11
:1023900090423AD901208C6170BD502080F31188A1
:1023A000BFF34F8FBFF36F8FFEE7D0E9026342693F
:1023B000B360D0E9023673605668031D9E4201D1B6
:1023C000C6685660456115686D1E1560C26ACE68A4
:1023D00004FA02F53543CD600E4D02EB82028C3DCE
:1023E00005EB8202526882609668C66096687360E8
:1023F0009360C26A02EB820205EB8203436155F8E7
:1024000022305B1C45F82230BFE7002070BD000081
:102410000C0000202C0100202DE9F041464D002445
:102420002746286B38B1FFF7D5FB286B401E286381
:10243000286B40B17AE0502080F31188BFF34F8FB2
:10244000BFF36F8FFEE768683C4B00264FF0010832
:10245000F0BB6BE0D868C468D4E90721A06A91603A
:10246000D4E907125160426804F118018A4201D18F
:10247000216A4160A6620168491E0160D4E9022117
:1024800060699160D4E9021251604268211D8A425C
:1024900001D1E268426066610268521E0260E26A2F
:1024A000D5F80CC008FA02F040EA0C00E86002EB34
:1024B0008200224A8C3A02EB80004068A060D0F88B
:1024C00008C0C4F80CC0D0F808C0CCF8041000E074
:1024D00012E08160E06A00EB800002EB8001616144
:1024E00052F82010491C42F82010E06A2968C96A95
:1024F000884201D3C5F8188018680028AAD10CB109
:10250000FFF762FA6C693CB1FFF77CFE08B1C5F8D1
:102510001880641EF8D16E61A86938B10849012796
:1025200038070860BFF34F8FBFF36F8FFFF772FB61
:102530003846BDE8F08100000C0000202C0100208E
:1025400004ED00E01CB5FFF7A1F80C48006860B18D
:102550000A490420091DCDE900010023802208A1B9
:102560000948FFF70DFE002807D1502080F311889D
:10257000BFF34F8FBFF36F8FFEE71CBD48000020F5
:10258000546D722053766300551A0008010202034D
:102590000405060708090A0B0C0D0E0F10100000A9
:1025A0000000000000000102030406070809000003
:1025B0000000010203040000D825000800000020EC
:1025C000A00000002801000878260008A0000020D4
:1025D000A01700004401000800000000AAAAAAAA4F
:1025E00000000000000000000000000000000000EB
:1025F00000000000000000000000000000000000DB
:1026000000000000000000000000000000000000CA
:1026100004000000000000000000000000000000B6
:1026200000000000000000000000000000000000AA
:10263000000000000000000000000000000000009A
:10264000000000000000000000000000000000008A
:10265000000000000000000000000000000000007A
:102660000000000000000000010000001000000059
:08267000000000000024F4004A
:04000005080000ED02
:00000001FF
