:020000040800F2
:100000003048002021020008EF130008E112000828
:10001000ED130008FD030008511500080000000062
:10002000000000000000000000000000890100083E
:10003000FF03000800000000CD010008F1130008D4
:100040003B0200083B0200083B0200083B0200089C
:100050003B0200083B0200083B0200083B0200088C
:100060003B0200083B0200083B0200083B0200087C
:100070003B0200083B0200083B0200083B0200086C
:100080003B0200083B0200083B0200083B0200085C
:100090003B0200083B0200083B0200083B0200084C
:1000A0003B0200083B0200083B0200083B0200083C
:1000B0003B0200083B0200083B0200083B0200082C
:1000C0003B0200083B0200083B0200083B0200081C
:1000D0003B0200083B0200083B0200083B0200080C
:1000E0003B0200083B0200083B02000800F002F857
:1000F00000F03AF80AA090E8000C82448344AAF188
:100100000107DA4501D100F02FF8AFF2090EBAE885
:100110000F0013F0010F18BFFB1A43F0010318473B
:10012000D4220000F4220000103A24BF78C878C11D
:10013000FAD8520724BF30C830C144BF04680C60ED
:10014000704700000023002400250026103A28BF35
:1001500078C1FBD8520728BF30C148BF0B60704739
:100160001FB51FBD10B510BD00F0A4F81146FFF774
:10017000F7FF01F0FFF900F0C2F803B4FFF7F2FF58
:1001800003BC00F0C9F80000224B19680868B0E809
:10019000F00F80F30988BFF36F8F4FF0000080F3FA
:1001A00011884EF00D0E70470000000006480068F0
:1001B000006880F3088862B661B6BFF34F8FBFF363
:1001C0006F8F00DF00BF00BF08ED00E0EFF3098094
:1001D000BFF36F8F0F4B1A6820E9F00F106008B55E
:1001E0004FF0500080F31188BFF34F8FBFF36F8F34
:1001F00001F0C2FC4FF0000080F31188BDE8084018
:1002000019680868B0E8F00F80F30988BFF36F8FB2
:10021000704700BF0C000020EFF30580704700001E
:100220000948804709480047FEE7FEE7FEE7FEE78A
:10023000FEE7FEE7FEE7FEE7FEE7FEE704480549C6
:10024000054A064B7047000095140008ED000008B1
:10025000304200203048002030440020304400204C
:100260004FF0000200B5134694469646203922BF4F
:10027000A0E80C50A0E80C50B1F12001BFF4F7AF9A
:10028000090728BFA0E80C5048BF0CC05DF804EB7C
:10029000890028BF40F8042B08BF704748BF20F8EA
:1002A000022B11F0804F18BF00F8012B70477047E8
:1002B00070477047754600F02BF8AE46050069465A
:1002C000534620F00700854618B020B5FFF7B6FF6B
:1002D000BDE820404FF000064FF000074FF0000847
:1002E0004FF0000B21F00701AC46ACE8C009ACE8C8
:1002F000C009ACE8C009ACE8C0098D46704710B52C
:100300000446AFF300802046BDE81040FFF735BF3C
:1003100000487047CC41002001491820ABBEFEE7E1
:10032000260002007047000070B50446006881682E
:10033000C943C90717D1816821F00101816000F02C
:1003400095FB05460AE000BF00F090FB401B022829
:1003500004D920688068C043C00706D02068806840
:10036000C043C007F0D0002070BDA06A40F010006C
:10037000A062E06A40F00100E062012070BD000070
:10038000F8B500260446009600688168C943C9078D
:100390002DD0816841F0010181601648164900683E
:1003A000B0FBF1F000E0401E00900028FBD100F00F
:1003B0005DFB054616E000BF00F058FB401B02281D
:1003C00010D920688068C043C0070BD0A06A40F0F5
:1003D0001000A062E06A40F00100E06284F824604E
:1003E0000120F8BD20688068C043C007E4D1002028
:1003F000F8BD0000B000002040420F00FEE770474B
:1004000072B6FEE7F8B50024009490F82420254643
:10041000012A12D0012280F824204A681F23072ACB
:100420000DD20668776B521E02EB820293409F4307
:100430000B6893401F43776319E00220F8BD0668FC
:100440000D2A0AD2376BD21F02EB820293409F43E0
:100450000B6893401F43376309E0F76A0D3A02EBDC
:10046000820293409F430B6893401F43F7620A68E0
:10047000072306680A2A0AD3F7680A3A02EB4202FF
:1004800093409F438B6893401F43F76008E03769B0
:1004900002EB420293409F438B6893401F433761B6
:1004A0000A68102A01D0112A20D1124B02689A4200
:1004B00017D193681B0219D4936843F40003936027
:1004C0000968102912D10C490C4A0968B1FBF2F1F4
:1004D00001EB8101490000E0491E00910029FBD198
:1004E00004E0816A41F020018162012480F82450F7
:1004F0002046F8BD00240140B000002040420F001B
:100500000068C06C704700002DE9F0414FF0000713
:1005100004003D467ED0A06A002628B9E66284F831
:100520002460204600F07EF82046FFF7FDFEA16A19
:10053000C90600D420B1A06A40F01000A06269E0B2
:10054000A16A21F4885141F00201A1626268E16967
:10055000237B0A4347EA43010A43A1684FF48077AB
:10056000B94209D0012907D05FF0000194F814C006
:10057000BCF1010F02D00AE03946F7E7F3B1A36AF4
:1005800043F02003A362E36A43F00103E3622368BC
:10059000D3F804C02CF4694C4CEA010CC3F804C035
:1005A00021688B68DFF870C003EA0C0313438B608B
:1005B000A168B9420BD0012909D00CE0DFF85CC07A
:1005C000A3690CEB43330B4343F40061DFE7218A5B
:1005D0000D05A5F580152168CB6A23F470032B4324
:1005E000CB62216889680E4B1940914208D1E662BE
:1005F000A16A21F0020141F00101A162BDE8F08190
:10060000A06A20F0020040F01000A062E06A40F012
:100610000100E0620120F1E7FDF7E1FF00E0FFFFEC
:10062000FE0E1FFF00B585B00021009101910291DF
:10063000039100680E49884217D10E48816941F440
:1006400000718161816901F400710491816941F057
:10065000040181618069694600F004000490032070
:1006600000900190044800F007F905B000BD0000BB
:100670000024014000100240000801402DE9F84329
:1006800000270D460446009700F0F0F980462068E8
:100690008168C90508D5A06A40F02000A06284F8EE
:1006A00024700120BDE8F8834168C90503D4C06AFD
:1006B00010F4700F2AD0022000F060FA3B4909685C
:1006C000B1FBF0F62068036939490B424FEA61013A
:1006D0004FEAA1121FD1C3684FEA611C13EA0C0F45
:1006E00019D103690B4225D1C068104222D11420D0
:1006F00023E0681C0AD02DB100F0B8F9A0EB080087
:10070000A84203D920680068800725D520680068C2
:100710008007EED52DE003690B4202D1C16811427A
:1007200006D0026923490A4206D1C068084203D1B3
:10073000542002E0292000E0FC204643009816E007
:10074000681C11D02DB100F091F9A0EB0800A8426F
:100750000AD90098B04207D2A06A40F00400A06213
:1007600084F8247003209DE70098401C0090B0425C
:10077000E6D321686FF012000860A06A40F40070B0
:10078000A06220688068C0F3424007280CD1207B1B
:1007900050B9A06A20F48070A062A06AC00403D49B
:1007A000A06A40F00100A06200207BE7B0000020BA
:1007B000244992244992240070B5044690F82400FC
:1007C00001280DD0012084F824002046FFF7D8FD31
:1007D00002004FF0000005D084F82400104670BDE0
:1007E000022070BDA16A40F20123994341F4807157
:1007F000A1621F4D23681F49AB4218D10E6816F441
:10080000702F14D0A66A46F48016A6620E6876058C
:1008100005D5A66A26F4005646F48056A662A66A56
:10082000F6040AD5E66A26F00606E66206E0A66A3F
:1008300026F48016A6625E68E9E7E06284F8240088
:100840006FF00200186020688368C3F34243072BEF
:1008500005D1A84208D1096811F4702F04D081682D
:1008600041F480118160B9E7816841F4A001F9E7A2
:1008700000280140042401402DE9F84FDFF8B89129
:100880000024A9F1040B23460F2709F1040AABF158
:10089000040EC9E00125A5402A40AA427DD1674E39
:1008A000D1F804C0ACEB0608B44532D014DCBCF17E
:1008B000030F3AD009DCBCF1000F2AD0BCF1010FC4
:1008C0001CD0BCF1020F31D11DE0BCF1110F17D0CB
:1008D000BCF1120F2AD119E0B8F5881F19D006DC37
:1008E000B8F5803F15D0B8F5801F1FD111E0B8F5DD
:1008F000001F0ED0B8F5041F18D10AE0CB6815E030
:10090000CB681B1D12E0CB6808330FE0CB680C33BB
:100910000CE08B682BB1012B4FF0080303D045612D
:1009200004E0042302E0056100E00023FF2A01D86F
:10093000064601E000F104064FEA840501D9A5F15D
:100940002005D6F8008007FA05FC28EA0C0803FA0F
:1009500005F548EA0508C6F800804D68ED0062D547
:10096000374DAE6946F00106AE61AD6924F003066D
:1009700005F001050095334D06EB050CDCF8085039
:10098000A607360F07FA06F825EA0805DFF8B8804B
:10099000404503D14FF0000817E044E0DFF8AC8099
:1009A000404502D14FF001080FE0DFF8A480404538
:1009B00002D14FF0020808E0DFF89880404502D1EC
:1009C0004FF0030801E04FF0040808FA06F848EA7F
:1009D0000508CCF808804D68D9F80060ED024D4656
:1009E00001D5164300E096432E604D68DAF80060AA
:1009F000AD02554601D5164300E096432E604D6882
:100A0000DBF80060AD035D4601D5164300E0964378
:100A10002E604D68DEF80060ED03754601D5164383
:100A200000E096432E60641C0D682A46E5407FF482
:100A300031AFBDE8F88F000008040140000011103C
:100A4000001002400000014000080140000C01407D
:100A500000100140001401408068084000D00120CF
:100A600070470AB1016170470904FBE701488068DB
:100A700070470000A4000020074810B5016841F04D
:100A800010010160032000F067F80F2000F006F865
:100A900000F024F8002010BD0020024070B50D4D7C
:100AA00004464FF47A712878B1FBF0F00A490968DE
:100AB000B1FBF0F000F096FB48B9102C07D20022F1
:100AC0002146501E00F028F800206C6070BD012007
:100AD00070BD0000A4000020B00000200C4808B544
:100AE000816941F001018161816901F00101009199
:100AF000C16941F08051C161C06900F0805000902F
:100B00000448416821F0E06141F00071416008BD96
:100B10000010024000000140F0B40E4B1B680C4670
:100B2000C3F30223C3F10705042D00D90425191DC1
:100B3000072901D2002300E0DB1E012606FA05F199
:100B4000491E214099409E40761E16403143F0BC1C
:100B500000F0FFBC0CED00E0064900F00702086859
:100B60004FF6FF03184040EA0220034A1043086092
:100B7000704700000CED00E00000FA0510B50146DA
:100B80000020234C012922D0022939D010291DD15F
:100B900061682268D20119D51E48C1F38342C90396
:100BA000805C0AD561681B4AC1F34041921E515CCA
:100BB000194AB2FBF1F1484301E018494843616822
:100BC000490203D440000321B0FBF1F010BD226ABA
:100BD000C2F30121012903D1920701D5C80310BD39
:100BE000022905D1626A920702D549F6404010BD3C
:100BF0000329FCD121688903F9D54FF2244010BDA7
:100C000000F02AF96168C1F38131491C4900DBE732
:100C100000100240CC23000800127A0000093D00B9
:100C20002DE9F84305460078354CC00754D0E069FB
:100C30000026C00008D4E06940F08050E061E0691F
:100C4000012600F0805000902E480168C90512D49A
:100C50000168804641F480710160FFF707FF074695
:100C600005E000BFFFF702FFC01B642823D8D8F8B7
:100C70000000C005F6D5206A10F4407021D0A98884
:100C800001F4407181421CD0206A1F49012220F4E6
:100C900040700A6000220A602062C00711D0FFF78E
:100CA000E5FE074641F2883808E000BFFFF7DEFEA8
:100CB000C11B414502D90320BDE8F883206A8007A3
:100CC000F4D5206A696820F44070084320621EB1A0
:100CD000E06920F08050E0612878800705D56068E1
:100CE000A96820F44040084360602878C00605D514
:100CF0006068E96820F48000084360600020DBE75A
:100D00000010024000700040400442422DE9F047CC
:100D10000F46050061D0434E306800F00700B8422E
:100D200009D2306820F0070038433060306800F0A6
:100D30000700B84251D128683B4C810712D54007C3
:100D400003D5606840F4E06060602878000703D550
:100D5000606840F4605060606068A96820F0F0004E
:100D6000084360602878C00728D06868012810D040
:100D70002168022810D0890700292EDA616821F045
:100D8000030101436160FFF771FE804641F288393B
:100D90000DE021688903EFE78901EDE7FFF766FEC3
:100DA000A0EB0801494502D90320BDE8F08760683F
:100DB000696800F00C00B0EB810FEFD1306800F0F3
:100DC0000700B8420BD9306820F007003843306084
:100DD000306800F00700B84201D00120E5E728782C
:100DE000400705D56068E96820F4E060084360606A
:100DF0002878000706D56068296920F4605040EA29
:100E0000C100606000F038F86168084AC1F303115E
:100E1000515CC8400649086006480068FFF73EFE7E
:100E20000020C2E70020024000100240DC2300083E
:100E3000B0000020A8000020044805490068496867
:100E4000044AC1F30221515CC8407047B000002041
:100E500000100240EC230008044805490068496876
:100E6000044AC1F3C221515CC8407047B000002061
:100E700000100240EC2300080E4A51680E4801F0B1
:100E80000C03042B11D0082B0FD10C48C1F3834362
:100E9000C903C05C0AD55168084AC1F34041921E9B
:100EA000515C054A5043B0FBF1F070470449484398
:100EB000704700000010024000127A00BA230008B8
:100EC00000093D002DE9F84F040070D02078C04D96
:100ED000C00749D06868C0F38100012807D068685E
:100EE000C0F38100022809D16868C00306D52868CC
:100EF000800339D560680028E7D035E06068B0F538
:100F0000803F0BD010B1B0F5A02F11D0286820F48D
:100F100080302860286820F4802002E0286840F4AF
:100F200080302860606890B1FFF7A0FD06460AE0B7
:100F3000286840F480202860F0E700BFFFF796FDA6
:100F4000801B642873D828688003F7D50CE0FFF76E
:100F50008DFD064605E000BFFFF788FD801B642875
:100F6000F0D828688003F7D420789A4E80074FF095
:100F700001094FF0000839D5686810F00C0F07D050
:100F80006868C0F38100022809D16868C00306D4EC
:100F90002868800714D52069012808D110E020694D
:100FA000B0B1C6F80090FFF761FD074605E00AE121
:100FB000FFF75CFDC01B0228C4D828688007F7D55E
:100FC0002868616920F0F80040EAC10028600DE05F
:100FD000C6F80080FFF74AFD074604E0FFF746FD2C
:100FE000C01B022823D828688007F7D42078000780
:100FF0002CD57948A169D9B1C0F80090FFF736FD2A
:10100000074604E0FFF732FDC01B02280FD8686ACC
:101010008007F7D571484FF4FA510068B0FBF1F042
:10102000009000BF0098411E0091FAD20EE080E0CF
:10103000C0F80080FFF71AFD074604E0FFF716FD31
:10104000C01B022875D8686A8007F7D4207840074B
:1010500060D5E8690027C00008D4E86940F08050F6
:10106000E861E869012700F0805000905C48016861
:10107000C90513D40168834641F480710160FFF70C
:10108000F5FC824606E000BFFFF7F0FCA0EB0A008B
:1010900064284ED8DBF80000C005F5D5E0680128CB
:1010A0000AD008B1052813D0286A20F00100286270
:1010B000286A20F0040002E0286A40F0010028625B
:1010C000E06841F2883B98B1FFF7D0FC82460BE024
:1010D000286A40F004002862EEE700BFFFF7C6FC74
:1010E000A0EB0A0159455AD8286A8007F6D50CE0CA
:1010F000FFF7BCFC824605E0FFF7B8FCA0EB0A0155
:1011000059454CD8286A8007F6D41FB1E86920F009
:101110008050E861E06988B36968C1F38101022900
:1011200044D00228C6F8608004D0FFF79FFC044634
:1011300038E034E0FFF79AFC074604E0FFF796FC3E
:10114000C01B02282BD828688001F7D4206AB0F58C
:10115000803F05D16868A16820F4003008436860CA
:10116000D4E908010843696821F4741108436860F0
:10117000C6F86090FFF77AFC044606E025E000BF61
:10118000FFF774FC001B022809D828688001F7D5F6
:101190001BE000BFFFF76AFC001B022802D90320F6
:1011A000BDE8F88F28688001F4D40EE00128F7D05C
:1011B0006868226A00F48031914204D1616A00F4C7
:1011C0007010884201D00120EAE70020E8E7000023
:1011D000001002400000424280044242B000002061
:1011E0000070004010B5401EB0F1807F01D3012097
:1011F00010BD4FF0E02460610F21601700F0A9F9E5
:101200000020A06107202061002010BD70B50400FF
:1012100004D094F84100002510B106E0012070BD13
:1012200084F84050204600F023F8242084F8410040
:101230002068C16821F40051C160204600F02CF9FB
:101240002068016921F4904101612068416921F021
:101250002A0141612068C16841F40051C1606564A0
:10126000202084F8410084F842006563002070BDAE
:1012700030B585B000240094019402940394006872
:101280001449884224D11448816941F48041816124
:10129000816901F480410491816941F00401816117
:1012A00080690E4D00F0040004904FF4007000902F
:1012B000022001900320039069462846FFF7DCFADC
:1012C0002815CDE90004694628460294FFF7D4FAB0
:1012D00005B030BD00380140001002400008014058
:1012E000FEE700003EB500241048009401940294EB
:1012F0000D498460016004730475012505614FF494
:1013000060214460C161FFF7FFF808B1FFF778F88A
:10131000CDE90045694605480294FFF773F80028B7
:1013200001D0FFF76DF83EBD00240140544100207C
:10133000F0B585B000241C480094019402940394F5
:10134000816941F020018161816901F020010491EE
:10135000816941F004018161816901F00401049116
:10136000816941F0080181618069104F00F0080037
:1013700047F207060490002231463846FFF771FB1A
:10138000382001258DE8310069460948FFF774FAD5
:101390000220CDE90240CDE9006569463846FFF7F5
:1013A0006BFA05B0F0BD000000100240000C0140D7
:1013B000000801400C4810B50A4901604FF416516D
:1013C0004160002181600C22C160C0E9041281618A
:1013D000C161FFF71BFF002803D0BDE81040FFF7F5
:1013E0000FB810BD0038014084410020FEE7FEE741
:1013F00010B5502080F31188BFF34F8FBFF36F8F6C
:1014000000F0E6FC18B104494FF08050086000205D
:1014100080F3118810BD000004ED00E030B593B0FA
:1014200028216846FEF71CFF14210AA8FEF718FFC2
:10143000002501200F9510951195010412958DE856
:10144000230004904FF4E010CDE908100224079423
:101450006846FFF737FD08B172B6FEE70AA90F200C
:1014600081E831004FF48060CDE90D0502210AA822
:10147000FFF74CFC08B172B6FEE74FF40040119044
:101480000F940FA8FFF7CCFB002801D072B6FEE73F
:1014900013B030BD7047000070B5044600680169A4
:1014A000E26821F44051114301612169A0680843B9
:1014B000616908432168CA6841F20C639A43024398
:1014C000CA6020684169A26921F4407111434161F9
:1014D0001E492068884202D1FFF7BEFC01E0FFF7F9
:1014E000ABFC00EBC00101EB0012606864218000DE
:1014F000B2FBF0F3B3FBF1F36FF018067343B2FBEA
:10150000F0F5B2FBF0F605EB8305322303EB05158E
:10151000B5FBF1F5B6FBF1F605F0F00505EB0615A8
:10152000B2FBF0F6B2FBF0F0B0FBF1F06FF0180296
:10153000504306EB800003EB0010B0FBF1F0216894
:1015400000F00F002844886070BD000000380140A2
:10155000FEE70907090E002804DB00F1E02080F80F
:101560000014704700F00F0000F1E02080F8141D17
:10157000704700001CB5FFF77FFAFFF74FFFFFF73A
:10158000D7FEFFF7AFFEFFF715FF22480325CDE991
:10159000005000F124034FF4807632461EA1254806
:1015A00000F098FB1B4C3246241F23A1206004F15D
:1015B0000800CDE9005000F12C031E4800F08AFB22
:1015C000206004F10C00CDE9005000F134033246F4
:1015D00021A1184800F07EFB206004F110000225D4
:1015E000CDE9005000F10803324624A12A4800F05A
:1015F00071FB206004F11400CDE9005000F10C03F0
:10160000324626A1244800F065FB0520206000F04A
:1016100077FAFEE75800002044726976696E672009
:10162000576865656C20427574746F6E20546173E1
:101630006B0000008B1900084472697665722053B4
:1016400065617420436F6E736F6C652042757474AE
:101650006F6E205461736B0050617373656E6765C4
:1016600072205365617420436F6E736F6C65204206
:101670007574746F6E205461736B000044726976E8
:10168000657220536561742054656D7020526561E8
:1016900064205461736B0000D51B000850617373A4
:1016A000656E67657220536561742054656D7020A6
:1016B00052656164205461736B00000070B5124C78
:1016C0000546A6682068001D00F04CF938B920686E
:1016D00090F82C1001208840E1688143E160206887
:1016E0003544B5424560216805D2A06BBDE8704025
:1016F000091D00F07BB9606B091D00F077F9606A85
:10170000854200D2656270BD0C0000202DE9F041D9
:10171000054600F083F9324C6068401C6060206828
:10172000304F10B1206900B325E0256060680128C2
:1017300021D1002606EB860007EB800000F048F977
:10174000761C052EF6D32748643000F041F9254871
:10175000783000F03DF923488C3000F039F9214809
:10176000643060631430A06305E02068E96AC06AF1
:10177000884200D82560206A0121401C2062E86A66
:10178000E26881401143E16000EB800007EB8000DC
:101790004068A8608168E9608268291D51608160A5
:1017A000E86A00EB800007EB8001696157F82010C0
:1017B000491C47F8201000F051F9206900280CD08E
:1017C0002068E96AC06A884207D207494FF0805012
:1017D0000860BFF34F8FBFF36F8FBDE8F08100004B
:1017E0000C000020B400002004ED00E00648074A89
:1017F0004FF080510368012BFCD91160BFF34F8F6C
:10180000BFF36F8FF6E70000B400002004ED00E0A6
:101810002DE9F0479946DDE9097480466FF003032E
:10182000206B03EB82021044089D20F0070670072E
:1018300007D0502080F31188BFF34F8FBFF36F8F15
:10184000FEE761B1002023180A5C83F834200A5CAB
:1018500012B1401C1028F6D3002084F84300052D57
:1018600007D3502080F31188BFF34F8FBFF36F8FE2
:10187000FEE7201DE56200F0B6F804F1180000F064
:10188000B2F82461C5F105006462A0614A46414690
:10189000304600F055F82060002F00D03C60BDE8D5
:1018A000F08700000548416B096821B1416BC968A8
:1018B0000968416270474FF0FF31FAE70C000020E1
:1018C00008484068401C4FF0500080F3118804D055
:1018D000BFF34F8FBFF36F8FFEE7BFF34F8FBFF3A1
:1018E0006F8FFEE70000002070B50446002540071A
:1018F00009D004F00700C0F108002044A04201D93B
:10190000044600E0002400F02FF90B48416819B9A3
:101910000A4921F00701416054B1026843F6F873A7
:101920001119994204D2914202D9436801609D186D
:1019300000F0EAFA284670BD480000205B01002054
:1019400010B5031F4FF080741C601B1F21F00101B4
:101950001960191F024B0B60143940380A6010BD22
:10196000C1180008D0E9013201699A60D0E9012369
:101970005A604A68824201D182684A60002202614C
:101980000868401E08600868704708B504460025CE
:1019900000F018FA00909621684600F0C9F9A18875
:1019A0002068FFF759F808B10025F4E71E2000F081
:1019B00081F8A1882068FFF74FF80028EBD12DB9F6
:1019C000A0680178491C01F0030101700125E2E7DC
:1019D00000F108014FF0FF32C0E90112C16001615E
:1019E00000210160704700210161704730B50B682C
:1019F0005A1C02D000F1080202E0026904E022460B
:101A0000546825689D42FAD953684B6099608A6092
:101A1000516008610168491C016030BD502080F3AD
:101A20001188BFF34F8FBFF36F8F0A494868401C7E
:101A3000486001280CD10848006810F0FF0F07D05B
:101A4000502080F31188BFF34F8FBFF36F8FFEE7F5
:101A5000704700000000002004ED00E008494868DD
:101A600028B1401E486001D180F311887047502092
:101A700080F31188BFF34F8FBFF36F8FFEE7000035
:101A800000000020002807D0502080F31188BFF309
:101A90004F8FBFF36F8FFEE7704700004FF0E020DD
:101AA00000210161816102494161072101617047A3
:101AB0003F19010010B5020014D00F48006B38B177
:101AC000502080F31188BFF34F8FBFF36F8FFEE775
:101AD00000F04AF800211046FFF7F0FD00F014FA7C
:101AE000002807D105494FF080500860BFF34F8FA1
:101AF000BFF36F8F10BD00000C00002004ED00E06C
:101B00007CB515480025CDE900502B46802213A155
:101B1000144800F0DFF8104C283C012802D0401C8B
:101B200011D00EE0502080F31188BFF34F8FBFF328
:101B30006F8F4FF0FF30606201202061A56000F0E0
:101B400075F8E06A7CBD502080F31188BFF34F8F99
:101B5000BFF36F8FFEE700003400002049444C457E
:101B600000000000ED1700080248016B491C0163EA
:101B7000704700000C0000201448016B11B10121D6
:101B80008161704700218161C168B1FA81F1C1F1C1
:101B90001F0101EB81020E4951F822306BB101EBBC
:101BA000820101F108034A6852684A609A4201D1F1
:101BB00052684A60D16801607047502080F31188F4
:101BC000BFF34F8FBFF36F8FFEE700000C000020C4
:101BD000B400002008B5044600F0F4F8114FDFF817
:101BE00048804FF4FA754FF0FF360090294668465A
:101BF00000F09EF82068FEF7DFFD31462068FEF712
:101C00003DFD2068FEF77CFC80B200F0F5FA394615
:101C100000F006FB414600F00DFA00F0CDFA6168D5
:101C20000870E3E70000344200F07F451CB5264908
:101C300008780190FF20087008788DF800009DF862
:101C400000009DF8002000F0F000904207D05020E6
:101C500080F31188BFF34F8FBFF36F8FFEE79DF8BE
:101C600000001A4C00F0500020700720A06005E032
:101C70009DF8002052008DF80020401E9DF80020A5
:101C80001206F5D4A060032807D0502080F31188F5
:101C9000BFF34F8FBFF36F8FFEE74FF44070A0602C
:101CA000019808700A48016841F4700101600168F8
:101CB00041F070410160FFF7F1FE00206060FEF727
:101CC00075FA00201CBD000000E400E000000020C8
:101CD00020ED00E02DE9FF5F8346DDE90E879946A0
:101CE00016468A469000FFF7FFFD05001DD04C20E8
:101CF000FFF7FAFD040015D04C21FEF7B1FA256379
:101D00000021CDE90241CDE900874B4632465146DC
:101D10005846FFF77DFD2046FFF7F8FC012004B090
:101D2000BDE8F09F2846FFF7ADFE4FF0FF30F6E725
:101D300070B50E4605004FF000040BD096B11F4A57
:101D4000106BB8B1502080F31188BFF34F8FBFF3F1
:101D50006F8FFEE7502080F31188BFF34F8FBFF3E2
:101D60006F8FFEE7502080F31188BFF34F8FBFF3D2
:101D70006F8FFEE7FFF7F8FE92682B689919934280
:101D800004D98B420BD9914202D808E08B42FAD990
:101D9000881A296001240021FFF790FC00E02960E7
:101DA00000F0B2F838B906494FF080500860BFF330
:101DB0004F8FBFF36F8F204670BD00000C000020D6
:101DC00004ED00E001488068704700000C0000202E
:101DD0002DE9F0414A4C0026206B28B16069401C77
:101DE00060613046BDE8F081A5686D1CA56013D127
:101DF000606B006838B1502080F31188BFF34F8FBB
:101E0000BFF36F8FFEE7606BA16B6163A063E06956
:101E1000401CE061FFF746FD616A3A488D420FD3EE
:101E20004FF0000E616B096839B1616BC968C96810
:101E30004A68954212D2626202E04FF0FF3161625D
:101E40002168C96A01EB810150F82100012800D9FD
:101E50000126A0690028C4D00126C2E7D1E9027298
:101E60004B69BA60D1E902277A605F680A1D974220
:101E700001D1CF685F60C1F814E01F687F1E1F604A
:101E8000D1F828C0BCF1000F15D0D1E907379F6009
:101E9000D1E907377B60DCF8047001F118039F4239
:101EA00002D10B6ACCF80430C1F828E0DCF800302D
:101EB0005B1ECCF80030CB6A0127D4F80CC09F40E1
:101EC00047EA0C07E76003EB830300EB83035B68DF
:101ED0008B609F68CF609F687A609A60CA6A02EBE5
:101EE000820200EB82034B6150F822305B1C40F809
:101EF0002230C96A2268D26A914293D9012691E7B9
:101F00000C000020B40000202DE9F041464D0024D3
:101F10002746286B38B1FFF781FD286B401E2863E8
:101F2000286B40B17AE0502080F31188BFF34F8FC7
:101F3000BFF36F8FFEE768683C4B00264FF0010847
:101F4000F0BB6BE0D868C468D4E90721A06A91604F
:101F5000D4E907125160426804F118018A4201D1A4
:101F6000216A4160A6620168491E0160D4E902212C
:101F700060699160D4E9021251604268211D8A4271
:101F800001D1E268426066610268521E0260E26A44
:101F9000D5F80CC008FA02F040EA0C00E86002EB49
:101FA0008200224A8C3A02EB80004068A060D0F8A0
:101FB00008C0C4F80CC0D0F808C0CCF8041000E089
:101FC00012E08160E06A00EB800002EB8001616159
:101FD00052F82010491C42F82010E06A2968C96AAA
:101FE000884201D3C5F8188018680028AAD10CB11E
:101FF000FFF758FC6C693CB1FFF7EAFE08B1C5F881
:102000001880641EF8D16E61A86938B108490127AB
:1020100038070860BFF34F8FBFF36F8FFFF71EFDC8
:102020003846BDE8F08100000C000020400100208F
:1020300004ED00E04FF47F0C1CEAD0121EBF1CEA36
:10204000D11392EA0C0F93EA0C0F00F0858090EA0E
:10205000010F48BF42F4807240F4000C41F40000CC
:102060002CF07F4120F07F4000B58142A2EB0302BB
:102070000FF2081CACEB504EC0F100009EF800E0DF
:102080004FEA4E0E00FB0EFC38BF49004FEA2C1CF5
:1020900002F5FA020CFB0EF34FEACE1E4FEA112CAA
:1020A0004FEAC1210EEB635E42EB22420EFB0CFCB9
:1020B0004FEA1C5300FB03114FEA112C4FEA013188
:1020C0000EFB0CFC4FEADC4C00FB0C11C14228BF9C
:1020D00009184CEB03335DF804EB10EB410143EBC3
:1020E000C250B2F57C0F38BF704729D512F0F00FFF
:1020F0001CBF00F1C04000F00040704700818283A7
:102100008485868788898B8C8D8E8F919293959606
:1021100097999A9C9D9FA0A2A3A5A7A8AAACAEB090
:10212000B2B3B5B7B9BCBEC0C2C5C7C9CCCED1D495
:10213000D7D9DCDFE2E6E9ECF0F3F7FAFE000000C5
:102140004FEA400C0CF1807CBCF17E4F28BF7047F9
:10215000B0F1C04000F02BB990EA010F0CEAD113A6
:1021600048BF42F48072624538BF634507D213F41A
:102170007F0F16D080EA010000F00040704710B5D4
:1021800000F0CFF8097EFC3E00F005B880EA0100BF
:1021900000F00040704780EA010000F0004000F0CD
:1021A00006B912F47F0F04BF0248704780EA0100AD
:1021B00000F0FDB80000C07FC10DD1F19E0206DB2A
:1021C0004FEA002343F0004323FA02F07047004235
:1021D00007D54FEA4001B1F1FE4F02D24FF00000A7
:1021E000704710B500F09DF8499224800020704798
:1021F0006FEA200070470000B0FA80F310FA03F293
:10220000C3F19D030AD0D90501EB1220530638BF54
:10221000704700F1010008BF20F001007047000086
:102220004FF47F0C1CEAD0121EBF1CEAD11392EAB5
:102230000C0F93EA0C0F00F0478090EA010F48BFA3
:1022400042F480724FF0004C4CEA00204CEA01212D
:1022500002EB0302A0FB0113A2F50002002918BF44
:1022600043F001035B0028BF4FEA330342EB2242F5
:102270005FEA132C4CEBC2502EBFBCEB436FB2F5A0
:102280007C0F70474FEA036CBCF1004F08BF20F091
:102290000100B2F57C0F38BF70470BD582F0FF020A
:1022A00012F5803FC8BF704700F1C040D8BF00F0B2
:1022B0000040704700F5000C5FEA4C0C48BF7047C7
:1022C000B0F1C04000F073B890EA010F0CEAD113EE
:1022D00048BF42F48072624538BF634504D280EA49
:1022E000010000F00040704710B500F01AF800BF80
:1022F0008900013E00F007B800F009B85FEA410C20
:102300005FEA1C6C08D080EA010000F050B85FEA78
:10231000400C5FEA1C6CF6D14FF00040A0F5800045
:1023200070470EF1020E2EF0030E5EF8044B2442AD
:1023300004D44FEA4102B2F17F4F11D84FEA400373
:10234000B3F17F4F0CD80ED14FEAD07CB2F17F4F62
:102350000CEB4C0C0CF1020C08BF4CEBD17C04E0F4
:102360004FF0080C01E04FEAD17C0CEB4C0324FA4F
:1023700003F404F00704B4F1040C06D20EEB840C51
:10238000BDE810404CF0010C6047DFE80CF0070896
:1023900002024FF00040A0F5800010BD0846420048
:1023A00018BFD2F1807288BF00F0004010BDFF213D
:1023B00041EAD050C0057047010202030405060738
:1023C00008090A0B0C0D0E0F101001020203040580
:1023D000060708090A0B0C0D0E0F10100000000074
:1023E00000000000010203040607080900000000C5
:1023F000010203041424000800000020B4000000BF
:1024000028010008C8240008B40000207C47000010
:102410004401000800000000AAAAAAAA00000000C7
:1024200000000000000000000000000000000000AC
:10243000000000000000000000000000000000009C
:102440000000000000000000000000000400000088
:10245000000000000000000000000000000000007C
:102460000000000000000000050000000000000067
:10247000000000000000000000000000000000005C
:1024800054410020A000002054410020A100002061
:102490000008014008000000500000200008014032
:1024A0001000000050000020000801402000000043
:1024B000510000200000000001000000100000009A
:0824C000000000000024F400FC
:04000005080000ED02
:00000001FF
